:100000000C945C000C9479000C9479000C947900A9
:100010000C9479000C9479000C9479000C9479007C
:100020000C9479000C9479000C9479000C9479006C
:100030000C9479000C9479000C9479000C9479005C
:100040000C9409020C9479000C9479000C947900BA
:100050000C9479000C9479000C9479000C9479003C
:100060000C9479000C947900000000080002010053
:100070000003040700000000000000000102040863
:100080001020408001020408102001020408102002
:10009000040404040404040402020202020203032E
:1000A0000303030300000000250028002B000000CC
:1000B0000000240027002A0011241FBECFEFD8E043
:1000C000DEBFCDBF12E0A0E0B1E0E6E7F9E002C09C
:1000D00005900D92AA3DB107D9F722E0AAEDB2E052
:1000E00001C01D92A33EB207E1F70E94FA010C94F1
:1000F000B9040C94000061E082E00E94230361E0F7
:1001000082E00E945F0361E083E00E94230361E0DC
:1001100084E00E94230361E087E00E94230361E002
:1001200085E00E94230361E086E00E94230361E0F2
:1001300088E00E94230361E088E00E945F0360E0A2
:1001400088E00C945F0361E083E00E945F0381E03C
:1001500090E00E94B40260E083E00C945F0361E0F1
:1001600087E00E945F0381E090E00E94B40260E0BB
:1001700087E00C945F0361E085E00E945F0381E00B
:1001800090E00E94B40260E085E00C945F0360E0C0
:1001900082E00E945F0381E090E00E94B40261E08F
:1001A00082E00C945F03CF93DF93D82FC8E06D2FCC
:1001B000607886E00E945F03DD0F0E94BB00C150A3
:1001C000B1F7DF91CF910C94AF004F925F926F9295
:1001D0007F928F929F92AF92BF92CF92DF92EF92D7
:1001E000FF920F931F93CF93DF93CDB7DEB769973D
:1001F0000FB6F894DEBF0FBECDBF7C0181E08093C7
:10020000900289E1E1E9F2E0DE01119601900D92A0
:100210008A95E1F7F70101900020E9F73197BF01D6
:100220006E197F0980E090E00E94070420E030E032
:1002300040EA50E40E9495034B015C01D70120E0A5
:100240004D9165E04602A001112484E090E034E085
:10025000320F632F681BE1E0F0E0EC0FFD1FE60FAB
:10026000F11DBF01FC01E40FF51FE050FF4F1081AD
:10027000FB011083019768F72B5F293109F710E024
:1002800009E1612F70E080E090E00E940904A5017F
:1002900094010E94900387FF6DC0612C712C88E14E
:1002A0006816710419F0502E561802C039E1532E09
:1002B000412C63016091900284E00E945F030E94E0
:1002C000A300E1E0F0E0EC0FFD1FEC0DFD1D8081CF
:1002D0000E94D3008091900290E09595879580933D
:1002E000900260E088E00E945F0384EF91E00E944A
:1002F000B40261E088E00E945F03E1E0CE1AD10819
:10030000C8F681E0809390020E94C7004394451094
:10031000D0CF2FEF621A720A69E16616710409F0F4
:10032000BECF1F5FD70185E0189FA00DB11D11241E
:1003300060E08D9125E08202C001112444E050E08C
:1003400074E0760F272F241BE1E0F0E0EC0FFD1F97
:10035000E20FF11D9F01FA01E80FF91FE050FF4F76
:10036000D080F901D0824150510960F76B5F69314B
:1003700001F787CF69960FB6F894DEBF0FBECDBFE9
:10038000DF91CF911F910F91FF90EF90DF90CF9071
:10039000BF90AF909F908F907F906F905F904F90A5
:1003A0000895CF93DF93CDB7DEB7AF970FB6F8942C
:1003B000DEBF0FBECDBF8FE2EAEAF2E0DE011196AA
:1003C00001900D928A95E1F76AE070E080E090E09C
:1003D0000E9478020E94C700CE0101960E94E500AB
:1003E000AF960FB6F894DEBF0FBECDBFDF91CF91B1
:1003F000089508950E94BF020E94F9010E947B00A7
:10040000C0E0D0E00E94D1012097E1F30E940000FB
:10041000F9CF1F920F920FB60F9211242F933F9393
:100420008F939F93AF93BF938091DB029091DC02F7
:10043000A091DD02B091DE023091DA0223E0230FB9
:100440002D3720F40196A11DB11D05C026E8230F0C
:100450000296A11DB11D2093DA028093DB029093D6
:10046000DC02A093DD02B093DE028091DF02909166
:10047000E002A091E102B091E2020196A11DB11D3E
:100480008093DF029093E002A093E102B093E20236
:10049000BF91AF919F918F913F912F910F900FBE80
:1004A0000F901F9018953FB7F8948091DF029091BC
:1004B000E002A091E102B091E20226B5A89B05C03E
:1004C0002F3F19F00196A11DB11D3FBFBA2FA92FD3
:1004D000982F8827820F911DA11DB11DBC01CD0150
:1004E00042E0660F771F881F991F4A95D1F708953C
:1004F0008F929F92AF92BF92CF92DF92EF92FF9234
:100500006B017C010E9453024B015C01C114D104B8
:10051000E104F10401F10E948F030E945302DC0107
:10052000CB0188199909AA09BB09883E9340A10506
:10053000B10560F321E0C21AD108E108F10888EEA4
:10054000880E83E0981EA11CB11CC114D104E104E3
:10055000F10419F7DBCFFF90EF90DF90CF90BF90C1
:10056000AF909F908F9008958230910538F0880F5A
:10057000991F880F991F05970197F1F708957894AF
:1005800084B5826084BD84B5816084BD85B5826098
:1005900085BD85B5816085BDEEE6F0E08081816036
:1005A0008083E1E8F0E01082808182608083808136
:1005B00081608083E0E8F0E0808181608083E1EB0E
:1005C000F0E0808184608083E0EBF0E080818160F6
:1005D0008083EAE7F0E080818460808380818260AC
:1005E0008083808181608083808180688083109295
:1005F000C1000895833081F028F4813099F0823071
:10060000A1F008958730A9F08830B9F08430D1F492
:10061000809180008F7D03C0809180008F778093D0
:100620008000089584B58F7702C084B58F7D84BD26
:1006300008958091B0008F7703C08091B0008F7DC6
:100640008093B0000895CF93DF9390E0FC01E458CD
:10065000FF4F2491FC01E057FF4F8491882361F103
:1006600090E0880F991FFC01E255FF4FC591D4918E
:10067000FC01EC55FF4FA591B491611109C09FB7E2
:10068000F8948881209582238883EC912E230BC0D7
:10069000623061F49FB7F8943881822F809583236C
:1006A0008883EC912E2B2C939FBF06C08FB7F894B4
:1006B000E8812E2B28838FBFDF91CF9108951F9360
:1006C000CF93DF93282F30E0F901E859FF4F849151
:1006D000F901E458FF4FD491F901E057FF4FC4915D
:1006E000CC23C9F0162F81110E94FA02EC2FF0E002
:1006F000EE0FFF1FEC55FF4FA591B4918FB7F89403
:10070000111105C09C91ED2FE095E92302C0EC91F9
:10071000ED2BEC938FBFDF91CF911F91089508953A
:100720000E94440408F481E008950E94A9030C94F7
:100730007F040E94780458F00E94710440F029F46C
:100740005F3F29F00C94680451110C94B3040C948D
:100750006E040E94900468F39923B1F3552391F33A
:10076000951B550BBB27AA2762177307840738F020
:100770009F5F5F4F220F331F441FAA1FA9F335D07D
:100780000E2E3AF0E0E832D091505040E695001C31
:10079000CAF72BD0FE2F29D0660F771F881FBB1FEB
:1007A000261737074807AB07B0E809F0BB0B802DC9
:1007B000BF01FF2793585F4F3AF09E3F510578F0F5
:1007C0000C9468040C94B3045F3FE4F3983ED4F3B4
:1007D000869577956795B795F7959F5FC9F7880FC9
:1007E000911D9695879597F90895E1E0660F771F1B
:1007F000881FBB1F621773078407BA0720F0621BAC
:10080000730B840BBA0BEE1F88F7E0950895E894FC
:1008100009C097FB3EF490958095709561957F4F48
:100820008F4F9F4F9923A9F0F92F96E9BB279395F6
:10083000F695879577956795B795F111F8CFFAF406
:10084000BB0F11F460FF1BC06F5F7F4F8F4F9F4F37
:1008500016C0882311F096E911C0772321F09EE895
:10086000872F762F05C0662371F096E8862F70E0FB
:1008700060E02AF09A95660F771F881FDAF7880FD5
:100880009695879597F90895990F0008550FAA0B2B
:10089000E0E8FEEF16161706E807F907C0F0121693
:1008A0001306E407F50798F0621B730B840B950B96
:1008B00039F40A2661F0232B242B252B21F40895EB
:1008C0000A2609F4A140A6958FEF811D811D089588
:1008D00097F99F6780E870E060E008959FEF80ECF3
:1008E000089500240A941616170618060906089596
:1008F00000240A9412161306140605060895092EFC
:100900000394000C11F4882352F0BB0F40F4BF2B6A
:1009100011F460FF04C06F5F7F4F8F4F9F4F0895AA
:1009200057FD9058440F551F59F05F3F71F04795A0
:10093000880F97FB991F61F09F3F79F08795089585
:10094000121613061406551FF2CF4695F1DF08C0A4
:10095000161617061806991FF1CF869571056105C1
:1009600008940895E894BB2766277727CB0197F969
:060970000895F894FFCF8A
:100976000000000000000000000000000000000071
:100986000000000000000000000000000000000061
:100996000000000000000000000000000000000051
:1009A6000000000000000000000000000000000041
:1009B6000000000000000000000000000000000031
:1009C6000000000000000000000000000000000021
:1009D6000000000000000000000000000000000011
:1009E6000000000000000000000000000000000001
:1009F60000000000000000000000000000000000F1
:100A060000000000000000000000000000000000E0
:100A16008080808080FFFFA0FFFFFBFCFBFCFFC9FE
:100A260080D980C9DBD580D5EDBCCCF7999ECFB5F2
:100A3600B2CDB7FFFFF8FFFFE3DDBEFFFFFFFFBE4E
:100A4600DDE3D5E380E3D5F7F7C1F7F7BFCFFFFFC7
:100A5600FFF7F7F7F7F7FF9F9FFFFFBFCFF7F9FE07
:100A6600C1AEB6BAC1FFBD80BFFFBD9EAEB6B9DE90
:100A7600BEBAB4CEE7EBED80EFD8BABABAC6C1B605
:100A8600B6B6CFFE8EF6FAFCC9B6B6B6C9F9B6B694
:100A9600B6C1FF9999FFFFFFA9C9FFFFF7EBDDBEBE
:100AA600FFEBEBEBEBEBFFBEDDEBF7FDFEAEF6F996
:100AB600000000000081EEEEEE81C9B6B6B680BE3B
:100AC600BEBEBEC1C1BEBEBE80BEB6B6B680FEF656
:100AD600F6F680CDAEBEBEC180F7F7F78000000007
:100AE600000000000000000000000000BFBFBFBF04
:100AF6008000000000000000000000C1BEBEBEC1B4
:100B0600018080808080808080808080808080805E
:100B160080808080808080808080212223242526FA
:100B26002728292A2B2C2D2E2F30313233343536D7
:100B36003738393A3B3C3D3E3F41424344454647C0
:0A0B46004841422121212121000035
:00000001FF
